:100D390075A15575A1AAE5B954F84404F5B9E4F5C6
:020D4900A122E5
:0E0D4B00EF4E600905A1EF1F70F61E80F32227
:100D0B00EFFDEEFCED4C600E7FE87E03120D4BED1C
:070D1B001D70F11C80EE22A7
:040D690043C610224B
:100B3C00C29FD29EC29DC2CDC2CC43878090013B46
:100B4C001209D100000082E47B0AFAF9F890013B0B
:100B5C00E0FCA3E0FDA3E0FEA3E0FF120933EB9061
:100B6C00013FF090013BE0FCA3E0FDA3E0FEA3E01D
:100B7C00FFE47B0AFAF9F812093390013B1209C51C
:100B8C0090013FE0C3940574809480401F90013B1A
:100B9C00E0FCA3E0FDA3E0FEA3E02401FFE43EFEA5
:100BAC00E43DFDE43CFC90013B1209C5E589540F82
:100BBC004420F58943C9A090013BA3A3A3E0F4040E
:080BCC00F58DD28ED299D29C66
:010BD40022FE
:080D59003098FDC298AF992209
:080D61008F993099FDC299221F
:100D220075A15575A1AAEF600543B101800353B1C6
:070D3200FEE4F5A1F5FF222C
:030D6D008FFF22D3
:100AA0004C69676874206F6E204E756D204C6F63C3
:100AB0006B204C4544210A004C69676874206F66BE
:100AC00066204E756D204C6F636B204C4544210AA7
:100AD000007A7A007374617274202E2E2E0A00122E
:100AE000011001000000403151072000000000000B
:100AF0000109022900010104A023090400000203E6
:100B000000000509210001000122220007058203DF
:100B1000400001070502034000010600FF0901A192
:100B200001090215002600FF75089540810609029B
:0C0B300015002600FF750895409106C0D6
:04003E0041010D006F
:10000300C2EAE4F5E275D18053D1FB53E2BF740039
:10001300FE74408EE5F5E443EB0C53EBFE7400FEF7
:1000230074008EEDF5EC53EAF3E4F5E343E2294380
:0B003300D10175D8FF75E107D2EA2269
:100CEF007480F87400FC7401FDFB7A0079C37E00F8
:0C0CFF007F401208BB75D54053D4FC2286
:0300430002004672
:0D004600C0E0C0F0C083C082C0D075D008FB
:1000530020D90302044CE5D9543F700302041C2445
:10006300FE602824E2700302039E24F0605C240EE9
:10007300600302044A75D50063D44090010DE4F097
:10008300E5D454FC4402F5D402044A20DE030204FE
:100093004A900112E5DBF063D480E4FF900112E0A3
:1000A300FEEFC39E501C74402FF582E43400F583A9
:1000B300E0F4FD74802FF582E43400F583EDF00F56
:1000C30080DA8ED553D4FC02044A75DCC090011249
:1000D300E5DBF0E064086003020366900006E0904D
:1000E3000103F0900112E4F0900001E0900104F0AC
:1000F300900000E05460606A900104E024FE603BDD
:1001030014603824FA24FD5032240B702890010E19
:100113007401F0A37400F0A374C3F0900103E0FF33
:10012300C394407480948090011240057440F08021
:100133000AEFF0800690011274FFF0900112E0FFC5
:10014300900103E0D39F4002EFF0900103E0FFC36F
:1001530094407480948040077E40EEFF02021402B4
:100163000214900104E0B40B004003020364900105
:1001730078F828287302034302028F020364020201
:10018300C702036402025102019902036402025C82
:1001930002027902036C900003E024FE601E24E057
:1001A30060302421704290010E74FFF0A3740AF0B2
:1001B300A374DFF09001127412F0803290010E7478
:1001C300FFF0A3740AF0A374F1F09001127429F004
:1001D300801C90010E74FFF0A3740BF0A3741AF04B
:1001E3009001127422F0800690011274FFF09001C6
:1001F30012E0FF900103E0D39F4002EFF090010370
:10020300E0FFC394407480948040067E40EEFF80FC
:1002130000900112EFF07E007400F87400FC74018A
:10022300FD90010EE0FBA3E0FAA3E0F91208BB90F6
:100233000103E0FF900112E0FEC3EF9E900103F083
:10024300EEFF90010FE48FF01208E102036C9000BF
:1002530002E0900103F002036C9000C0E090000004
:10026300F0900103E0C3940174809480500302036F
:100273006C9001128010900002E09000C0F07003B7
:1002830002036C9001117401F002036C900000E012
:10029300541F6402702B900004E024FE601D24812F
:1002A300600E147046E5D454BC4402F5D402036CCA
:1002B300E5D254BC4402F5D202036C53D473020357
:1002C3006C020366900000E0541FFD7C00701E90DA
:1002D3000003E0FE900002E0FBEB64014E700C9023
:1002E3000AF89330E50302036C80788076ED6402AC
:1002F3004C704B900003E0FE900002E0FDED4E7069
:100303003B900005E0FE900004E0FDEDFFEE702A57
:10031300EF24FE60112481601714701EE5D454BFCE
:100323004403F5D48043E5D4547F440CF5D4803999
:10033300E5D254BF4403F5D2802F80278025802344
:10034300900000E4F0A3F0900103E0FFC394027473
:1003530080948090011240057402F0800CEFF080CD
:1003630008800090011274FFF0900112E0FF7E00FC
:10037300F4700C90010474FFF075DCCF02044AD3CF
:10038300EF9440EE648094805008900112E0F5DD14
:10039300800375DD0075DCC002044A900104E0248B
:1003A300FB606014600424057067900103E0FFC3E1
:1003B30094407480948040067E40EEFF800090015C
:1003C30012EFF07E007400F87400FC7401FD9001DC
:1003D3000EE0FBA3E0FAA3E0F91208BB900103E0EF
:1003E300FF900112E0FEC3EF9E900103F0EEFF9039
:1003F300010FE48FF01208E1900112E0F5DD63DCF8
:10040300408044E5E35480FF900103E04FF5E3802F
:100413000375DD0075DC02802E900112E5DBF090A0
:100423000104E06409701D900000E060087BFF7A1E
:100433000A79A0800C900000E070097BFF7A0A79AA
:10044300B81204F163DC80C2D930D81475DC0275AC
:10045300D40275E300C2DAC2D990010DE4F0C2D828
:1004630030DA12C2DAE5DA30E20E7BFF7A0A79D1AA
:080473001204F1800375D8FFAB
:0B047B00D0D0D082D083D0F0D0E0328F
:100C6100120D397F057E00120D0B120B3C7BFF7AB2
:100C71000A79D41204F1E4FFEFC3944074809480A4
:100C8100500F74C32FF582E43400F583EFF00F8029
:100C9100E7120003D2AFE4F5D3F5D59000C2F0908E
:100CA1000111F0900111E0601520951290010DE005
:100CB10070FA04F0120CEF7F647E00120D0B7F645A
:070CC1007E00120D0B80DC28
:03000000020BD51B
:0C0BD500787FE4F6D8FD758122020C1C2C
:1007EB00E709F608DFFA8046E709F208DFFA803EF0
:1007FB0088828C83E709F0A3DFFA8032E309F608DD
:10080B00DFFA8078E309F208DFFA807088828C8344
:10081B00E309F0A3DFFA806489828A83E0A3F608F8
:10082B00DFFA805889828A83E0A3F208DFFA804CD2
:10083B0080D280FA80C680D4806980F280338010A9
:10084B0080A680EA809A80A880DA80E280CA803312
:10085B0089828A83ECFAE493A3C8C582C8CCC5838A
:10086B00CCF0A3C8C582C8CCC583CCDFE9DEE7805A
:10087B000D89828A83E493A3F608DFF9ECFAA9F0D9
:10088B00EDFB2289828A83ECFAE0A3C8C582C8CC2F
:10089B00C583CCF0A3C8C582C8CCC583CCDFEADE48
:1008AB00E880DB89828A83E493A3F208DFF980CCAA
:1008BB0088F0EF60010E4E60C388F0ED2402B404A3
:1008CB000050B9F582EB2402B4040050AF2323454A
:0608DB00822390083B732C
:1008E100C5F0F8A3E028F0C5F0F8E58215827002A2
:0608F1001583E038F0223F
:1008F70075F008758200EF2FFFEE33FECD33CDCCB8
:1009070033CCC58233C5829BED9AEC99E58298403A
:100917000CF582EE9BFEED9AFDEC99FC0FD5F0D617
:10092700E4CEFBE4CDFAE4CCF9A88222B800C1B941
:100937000059BA002DEC8BF084CFCECDFCE5F0CB7F
:10094700F97818EF2FFFEE33FEED33FDEC33FCEBB8
:1009570033FB10D703994004EB99FB0FD8E5E4F973
:10096700FA227818EF2FFFEE33FEED33FDEC33FC60
:10097700C933C910D7059BE99A4007EC9BFCE99A54
:10098700F90FD8E0E4C9FAE4CCFB2275F010EF2F99
:10099700FFEE33FEED33FDCC33CCC833C810D70799
:1009A7009BEC9AE899400AED9BFDEC9AFCE899F8D4
:0E09B7000FD5F0DAE4CDFBE4CCFAE4C8F92267
:0C09C500ECF0A3EDF0A3EEF0A3EFF022A5
:1009D100A8828583F0D083D0821209E81209E81237
:1009E10009E81209E8E473E493A3C583C5F0C5835C
:1009F100C8C582C8F0A3C583C5F0C583C8C582C870
:010A010022D2
:10048600E515243EF582E43401F583E00515229056
:10049600013B30100390013EE475F001120A5A0246
:1004A6000A022009E97F2ED2098018EF540F249002
:1004B600D43440D4FF300D0BEF24BFB41A005003E0
:1004C6002461FFE516600215160519E51970020587
:1004D6001830100E90013BE475F001120A5AEF0233
:1004E6000A48020CC87403D2108003E4C210F51542
:1004F60090013B120A71E4F516F518F519E5166038
:10050600077F201204C980F57517FFC20AC209C207
:100516000BC20CC20EC20FC211120495FF700D3031
:1005260010057F001204DAAF19AE1822B4255FC297
:10053600D5C20D120495FF24D0B40A00501A75F0E6
:100546000A781630D50508B6FF0106C6A426F62099
:10055600D5047002D20C80D924CFB41A00EF50040F
:10056600C2E5D20D0206DBD20A80C6D20980C0D20D
:100576000B80BCD2D580BAD20E80B47F201204C9BB
:10058600200B077401B5160040F1120486FF120411
:10059600C9020503D211D20F8095120486FB1204FC
:1005A60086FA120486F94A4B700679AC7A077BFF05
:1005B600200B2EE516602A7E008E82758300120AB5
:1005C6001B60060EEE651770F0C2D5EBC0E0EAC000
:1005D600E0E9C0E0EE120722D0E0F9D0E0FAD0E080
:1005E600FB120A02FF60AAEBC0E0EAC0E0E9C0E045
:1005F6001204C9D0E02401F9D0E03400FAD0E0FBBF
:10060600E5170460DCD517D980877BFF7A07791E4A
:10061600D20B809C791080027908C20FC211800823
:10062600D2D5790A8004790AC2D5E517047002F595
:1006360017E4FAFDFEFF120486FC7B08200A13125B
:100646000486FD7B1030090A120486FE120486FF1A
:100656007B20EC3382D592D55013C3E43009069F34
:10066600FFE49EFEE4200A039DFDE49CFCE4CBF837
:10067600C20AEC700CCFCECDCCE824F8F870F3802B
:1006860017C3EF33FFEE33FEED33FDEC33FCEB33F4
:10069600FB994002FB0FD8E9EB300A05F8D0E0C41D
:1006A60048B20AC0E00AEC4D4E4F78207B0070C27B
:1006B600EAB5170040BCC0E0120724D0F0D0E02015
:1006C6000A04C4C0E0C4B20AC0F01204B2D0F0D525
:1006D600F0EB020503120A7A05A053061A580571B3
:1006E6004C056D42061E4F062644062649058643DE
:0806F600062C55061046061003
:1006FE004506104707CC5005752D05792E059C2B08
:10070E00057D23059A2007B52A0535480000059476
:10071E003F3F3F00790AA2D5200C14300E09B910C4
:10072E00020404B9080104A2D5200F0250010420CE
:10073E000B68920BB516005034C0E07F20300C19B8
:10074E007F30A20B720F720E500F12077BC20BC2BC
:10075E000FC20EC2117F30800F300E03E9C0E012BF
:10076E0004C9300E03D0E0F9D0E0B516CC300E1728
:10077E007F30B9100C1204C97F58300D077F788076
:10078E0003B908031204C9300B057F2D0204C97F7B
:10079E00202011F87F2B200FF322920B80CF286E92
:1007AE00756C6C2900D20A120486300AF8C20A78D7
:1007BE001630D50108F60205352D5043495812045E
:1007CE00862403B405004001E49007C7931204BACF
:0D07DE00743A1204BAD20C75160402061A01
:100BE100020C61E493A3F8E493A34003F68001F2BD
:100BF10008DFF48029E493A3F85407240CC8C33315
:100C0100C4540F4420C8834004F456800146F6DFE3
:100C1100E4800B010204081020408090003EE47E35
:100C2100019360BCA3FF543F30E509541FFEE493D8
:100C3100A360010ECF54C025E060A840B8E493A39F
:100C4100FAE493A3F8E493A3C8C582C8CAC583CACA
:100C5100F0A3C8C582C8CAC583CADFE9DEE780BE82
:0100420000BD
:100A0200BB010689828A83E0225002E722BBFE02F2
:090A1200E32289828A83E4932225
:100A1B00BB010CE58229F582E5833AF583E0225090
:100A2B0006E92582F8E622BBFE06E92582F8E222DA
:0D0A3B00E58229F582E5833AF583E49322F4
:100A4800BB010689828A83F0225002F722BBFE018D
:020A5800F32287
:100A5A00F8E0FBA3A3E0F925F0F0E5821582700225
:070A6A001583E0FA38F022C9
:090A7100EBF0A3EAF0A3E9F02286
:100A7A00D083D082F8E4937012740193700DA3A30B
:100A8A0093F8740193F5828883E47374029368601F
:060A9A00EFA3A3A380DF1F
:100CC800EFB40A07740D120CD3740A309811A8995E
:100CD800B8130CC2983098FDA899C298B811F6308C
:070CE80099FDC299F5992264
:00000001FF
