:100ED30075A15575A1AAE5B954F84404F5B9E4F52B
:020EE300A1224A
:0E0EE500EF4E600905A1EF1F70F61E80F3228C
:10002A00EFFDEEFCED4C600E7FE87E03120EE5ED6F
:07003A001D70F11C80EE2295
:040F250043C610228D
:100CFA00C29FD29EC29DC2CDC2CC43878090004380
:100D0A0012099200000082E47B0AFAF9F890004383
:100D1A00E0FCA3E0FDA3E0FEA3E0FF1208F4EB90E1
:100D2A000047F0900043E0FCA3E0FDA3E0FEA3E04F
:100D3A00FFE47B0AFAF9F81208F4900043120986D4
:100D4A00900047E0C3940574809480401F9000434C
:100D5A00E0FCA3E0FDA3E0FEA3E02401FFE43EFEE5
:100D6A00E43DFDE43CFC900043120986E589540FFA
:100D7A004420F58943C9A0900043A3A3A3E0F40447
:080D8A00F58DD28ED299D29CA6
:010D9200223E
:080F15003098FDC298AF99224B
:080F1D008F993099FDC2992261
:100EA90075A15575A1AAEF600543B101800353B13E
:070EB900FEE4F5A1F5FF22A4
:030F29008FFF2215
:100A610053455420434F4E4649472E0A004C69676F
:100A71006874206F6E204E756D204C6F636B204C37
:100A81004544210A004C69676874206F6666204EF0
:100A9100756D204C6F636B204C4544210A00256322
:100AA100007374617274202E2E2E0A004944302086
:100AB1003D20253032782025303278200A00494403
:100AC10031203D20253032782025303278200A002F
:100AD100494432203D20253032782025303278209B
:100AE1000A0012011001000000083D410721000029
:100AF1000000000109023B00020100A032090400CC
:100B0100000103010100092111010001223E00073A
:100B110005810308000A090401000103010200091B
:100B210021100100012234000705820304000A0597
:100B3100010906A101050719E029E715002501753D
:100B410001950881029501750881019503750105DB
:100B51000819012903910295057501910195067501
:100B61000826FF000507190029918100C005010928
:100B710002A1010901A10005091901290315002597
:100B81000175019503810275059501810105010931
:100B910030093109381581257F750895038106C013
:010BA100C093
:100EC0004400810000000048006C000000000000A9
:020ED000000020
:0A0F010075A15575A1AA43B1102295
:0E0EF30053D1FB7F027E0012002A43D104225D
:100E1F00C2EAE4F5E275D18043D10443E2407400A5
:100E2F00FE74148EE5F5E4E5EB54FE4404F5EB7423
:100E3F0000FE74008EEDF5EC53EAF37400FE740AB5
:100E4F008EEFF5EEE5EA54EF4440F5EAE4F5E343BF
:0E0E5F00E22943D10175D8FF75E107D2EA22DE
:040E6D0090006EF093
:100E7100740AF87400FC7401FDFB7A00796C7E0041
:0C0E81007F0812087C75D30853D2FC22B5
:100E8D007414F87400FC7401FDFB7A0079817E0006
:0C0E9D007F0412087C75D50453D4FC229D
:0300430002004672
:0D004600C0E0C0F0C083C082C0D075D008FB
:1000530090001AE4F020D903020418E5D9543F7044
:10006300030203E824E0700302036E14601C24F10E
:10007300602F240E600302041675D50063D440E597
:10008300D454FC4402F5D402041675D30063D24061
:10009300E5D254FC4402F5D29000767401F00204D8
:1000A3001675DCC090001AE5DBF0E064086003021B
:1000B3000340900006E0900077F0900007E0700D99
:1000C300900077E0D3947F7480948040069000770B
:1000D300747FF090001AE4F0900001E0900078F053
:1000E300900000E05460601A900078E01424FD4012
:1000F3000302034624FB24FD40030203468000025F
:100103000340900078E0B40B00400302033E9001EB
:1001130018F828287302031D02025D02033E02023F
:10012300A102033E02021602013902033E0202212A
:1001330002023E020346900003E024FE601E24E018
:1001430060302421706790008574FFF0A3740AF077
:10015300A374E3F090001A7412F080579000857432
:10016300FFF0A3740AF0A374F5F090001A743BF047
:100173008041900004E0FF7E00701690008574FFBC
:10018300F0A3740BF0A37430F090001A743EF08067
:1001930022EF64014E701690008574FFF0A3740B78
:1001A300F0A3746EF090001A7434F0800690001A75
:1001B30074FFF090001AE0FF900077E0D39F4002B5
:1001C300EFF0900077E0FFC39408748094804006BA
:1001D3007E08EEFF800090001AEFF07E007400F8B6
:1001E3007400FC7401FD900085E0FBA3E0FAA3E03A
:1001F300F912087C900077E0FF90001AE0FEC3EF4D
:100203009E900077F0EEFF900086E48FF01208A234
:10021300020346900002E0900077F002034690004C
:1002230074E0900000F0900077E0C3940174809430
:1002330080500302034690001A8019900002E09058
:100243000074F070030203467BFF7A0A796112049B
:10025300B29000887401F0020346900000E0541F3E
:10026300FF7E006402702D900004E014601B248064
:10027300600D147019E5D454BC4402F5D48015E51F
:10028300D254BC4402F5D2800B53D2738006900043
:100293001A74FFF0EF4E700302034602034090000E
:1002A30000E0541FFD7C00701E900003E0FE9000F0
:1002B30002E0FBEB64014E700C900AFC9330E50303
:1002C30002034680788076ED64024C704B90000305
:1002D300E0FE900002E0FDED4E703B900005E0FE75
:1002E300900004E0FDEDFFEE702AEF24FE60112480
:1002F30081601714701EE5D454BF4403F5D48043C2
:10030300E5D4547F440CF5D48039E5D254BF44037B
:10031300F5D2802F802780258023900000E4F0A36E
:10032300F0900077E0FFC394027480948090001AE9
:1003330040057402F0800CEFF08008800090001AF2
:1003430074FFF090001AE0FFF4700C90007874FFD3
:10035300F075DCCF020416EF600890001AE0F5DDBB
:10036300800375DD0075DCC0020416900078E0247C
:10037300FB605C147067900077E0FFC3940874809F
:10038300948040067E08EEFF800090001AEFF07E16
:10039300007400F87400FC7401FD900085E0FBA379
:1003A300E0FAA3E0F912087C900077E0FF90001ACE
:1003B300E0FEC3EF9E900077F0EEFF900086E48F9F
:1003C300F01208A290001AE0F5DD63DC408044E5FA
:1003D300E35480FF900077E04FF5E3800375DD0081
:1003E30075DC02802E90001AE5DBF0900078E06463
:1003F30009701D900000E060087BFF7A0A796E8027
:100403000C900000E070097BFF7A0A79861204B22F
:1004130063DC80C2D930D81275DC0275D20275D480
:100423000275E300C2DAC2D9C2D830DA09C2DAE50A
:09043300DA30E205800375D8FF00
:0B043C00D0D0D082D083D0F0D0E032CE
:100C5E00120F0B900043EFF07BFF7A0A799F900002
:100C6E0047F01204B2900043E024BF602424F160E8
:100C7E003714604B14600B24067060900081740171
:100C8E0080059000817402F0120E8DE4900081F0C8
:100C9E0022E4900076F0741D120E6DE490006EF05A
:100CAE00900076E060FA8030E4900076F0743812AE
:100CBE000E6DE490006EF0900076E060FA8019E41C
:100CCE00900076F090006E7439F0120E71E4900080
:100CDE006EF0900076E060FA020E71E5D254FC449C
:0B0CEE0002F5D2E5D454FC4402F5D41A
:010CF90022D8
:100BA200120ED37F057E0012002A120CFA7BFF7A06
:100BB2000A79A21204B27BFF7A0A79AD903FFAE475
:100BC20093FF900047E4F0A3EFF0903FFBE493FF24
:100BD200900049E4F0A3EFF01204B27BFF7A0A79A5
:100BE200BF903FFCE493FF900047E4F0A3EFF09046
:100BF2003FFDE493FF900049E4F0A3EFF01204B24A
:100C02007BFF7A0A79D1903FFEE493FF900047E49C
:100C1200F0A3EFF0903FFFE493FF900049E4F0A3CC
:100C2200EFF01204B2120E1FD2AFE4F5D3F5D59055
:100C32000076F0900088F0900088E06003120C5E6D
:100C4200900088E0600D20950A120E717F0A7E00E6
:0C0C520012002A7F647E0012002A80DB62
:03000000020D935B
:0C0D9300787FE4F6D8FD758122020DDAAD
:1007AC00E709F608DFFA8046E709F208DFFA803E2F
:1007BC0088828C83E709F0A3DFFA8032E309F6081C
:1007CC00DFFA8078E309F208DFFA807088828C8384
:1007DC00E309F0A3DFFA806489828A83E0A3F60838
:1007EC00DFFA805889828A83E0A3F208DFFA804C12
:1007FC0080D280FA80C680D4806980F280338010E9
:10080C0080A680EA809A80A880DA80E280CA803351
:10081C0089828A83ECFAE493A3C8C582C8CCC583C9
:10082C00CCF0A3C8C582C8CCC583CCDFE9DEE78099
:10083C000D89828A83E493A3F608DFF9ECFAA9F018
:10084C00EDFB2289828A83ECFAE0A3C8C582C8CC6E
:10085C00C583CCF0A3C8C582C8CCC583CCDFEADE87
:10086C00E880DB89828A83E493A3F208DFF980CCE9
:10087C0088F0EF60010E4E60C388F0ED2402B404E2
:10088C000050B9F582EB2402B4040050AF23234589
:06089C0082239007FC73AB
:1008A200C5F0F8A3E028F0C5F0F8E58215827002E1
:0608B2001583E038F0227E
:1008B80075F008758200EF2FFFEE33FECD33CDCCF7
:1008C80033CCC58233C5829BED9AEC99E58298407A
:1008D8000CF582EE9BFEED9AFDEC99FC0FD5F0D657
:1008E800E4CEFBE4CDFAE4CCF9A88222B800C1B981
:1008F8000059BA002DEC8BF084CFCECDFCE5F0CBBF
:10090800F97818EF2FFFEE33FEED33FDEC33FCEBF7
:1009180033FB10D703994004EB99FB0FD8E5E4F9B2
:10092800FA227818EF2FFFEE33FEED33FDEC33FC9F
:10093800C933C910D7059BE99A4007EC9BFCE99A93
:10094800F90FD8E0E4C9FAE4CCFB2275F010EF2FD8
:10095800FFEE33FEED33FDCC33CCC833C810D707D8
:100968009BEC9AE899400AED9BFDEC9AFCE899F813
:0E0978000FD5F0DAE4CDFBE4CCFAE4C8F922A6
:0C098600ECF0A3EDF0A3EEF0A3EFF022E4
:10099200A8828583F0D083D0821209A91209A912F4
:1009A20009A91209A9E473E493A3C583C5F0C58319
:1009B200C8C582C8F0A3C583C5F0C583C8C582C8AF
:0109C2002212
:10044700E5152447F582E43400F583E0051522908D
:100457000044301003900047E475F001120A1B02B4
:1004670009C32009E97F2ED2098018EF540F249081
:10047700D43440D4FF300D0BEF24BFB41A0050031F
:100487002461FFE516600215160519E519700205C6
:100497001830100E900044E475F001120A1BEF02A9
:1004A7000A090200037403D2108003E4C210F51591
:1004B700900044120A32E4F516F518F519E51660AE
:1004C700077F2012048A80F57517FFC20AC209C286
:1004D7000BC20CC20EC20FC211120456FF700D30B0
:1004E70010057F0012049BAF19AE1822B4255FC216
:1004F700D5C20D120456FF24D0B40A00501A75F065
:100507000A781630D50508B6FF0106C6A426F620D8
:10051700D5047002D20C80D924CFB41A00EF50044E
:10052700C2E5D20D02069CD20A80C6D20980C0D28B
:100537000B80BCD2D580BAD20E80B47F2012048A39
:10054700200B077401B5160040F1120447FF12048F
:100557008A0204C4D211D20F8095120447FB1204F9
:1005670047FA120447F94A4B7006796D7A077BFF01
:10057700200B2EE516602A7E008E827583001209F5
:10058700DC60060EEE651770F0C2D5EBC0E0EAC07E
:10059700E0E9C0E0EE1206E3D0E0F9D0E0FAD0E0FF
:1005A700FB1209C3FF60AAEBC0E0EAC0E0E9C0E0C4
:1005B70012048AD0E02401F9D0E03400FAD0E0FB3D
:1005C700E5170460DCD517D980877BFF7A0679DFCA
:1005D700D20B809C791080027908C20FC211800863
:1005E700D2D5790A8004790AC2D5E517047002F5D5
:1005F70017E4FAFDFEFF120447FC7B08200A1312DA
:100607000447FD7B1030090A120447FE120447FF16
:100617007B20EC3382D592D55013C3E43009069F73
:10062700FFE49EFEE4200A039DFDE49CFCE4CBF876
:10063700C20AEC700CCFCECDCCE824F8F870F3806A
:1006470017C3EF33FFEE33FEED33FDEC33FCEB3333
:10065700FB994002FB0FD8E9EB300A05F8D0E0C45C
:1006670048B20AC0E00AEC4D4E4F78207B0070C2BA
:10067700EAB5170040BCC0E01206E5D0F0D0E02094
:100687000A04C4C0E0C4B20AC0F0120473D0F0D5A3
:10069700F0EB0204C4120A3B05615305DB5805322F
:1006A7004C052E4205DF4F05E74405E7490547435B
:0806B70005ED5505D14605D102
:1006BF004505D147078D5005362D053A2E055D2B83
:1006CF00053E23055B2007762A04F64800000555F2
:1006DF003F3F3F00790AA2D5200C14300E09B91004
:1006EF00020404B9080104A2D5200F02500104200E
:1006FF000B68920BB516005034C0E07F20300C19F8
:10070F007F30A20B720F720E500F12073CC20BC23A
:10071F000FC20EC2117F30800F300E03E9C0E012FE
:10072F00048A300E03D0E0F9D0E0B516CC300E17A6
:10073F007F30B9100C12048A7F58300D077F7880F4
:10074F0003B9080312048A300B057F2D02048A7F38
:10075F00202011F87F2B200FF322920B80CF286ED1
:10076F00756C6C2900D20A120447300AF8C20A7855
:10077F001630D50108F60204F62D504349581204DD
:10078F00472403B405004001E49007889312047BCB
:0D079F00743A12047BD20C7516040205DBBF
:0A0F0B003098FDAF99C2987E0022D5
:100D9F00020BA2E493A3F8E493A34003F68001F2BD
:100DAF0008DFF48029E493A3F85407240CC8C33355
:100DBF00C4540F4420C8834004F456800146F6DF24
:100DCF00E4800B0102040810204080900EC0E47EE6
:100DDF00019360BCA3FF543F30E509541FFEE49319
:100DEF00A360010ECF54C025E060A840B8E493A3E0
:100DFF00FAE493A3F8E493A3C8C582C8CAC583CA0B
:100E0F00F0A3C8C582C8CAC583CADFE9DEE780BEC2
:010ED200001F
:1009C300BB010689828A83E0225002E722BBFE0232
:0909D300E32289828A83E4932265
:1009DC00BB010CE58229F582E5833AF583E02250D0
:1009EC0006E92582F8E622BBFE06E92582F8E2221A
:0D09FC00E58229F582E5833AF583E4932234
:100A0900BB010689828A83F0225002F722BBFE01CC
:020A1900F322C6
:100A1B00F8E0FBA3A3E0F925F0F0E5821582700264
:070A2B001583E0FA38F02208
:090A3200EBF0A3EAF0A3E9F022C5
:100A3B00D083D082F8E4937012740193700DA3A34A
:100A4B0093F8740193F5828883E47374029368605E
:060A5B00EFA3A3A380DF5E
:10000300EFB40A07740D12000E740A309811A89900
:10001300B8130CC2983098FDA899C298B811F6305D
:0700230099FDC299F5992235
:00000001FF
