:100CED0075A15575A1AAE5B954F84404F5B9E4F513
:020CFD00A12232
:0E0CFF00EF4E600905A1EF1F70F61E80F32274
:100CBF00EFFDEEFCED4C600E7FE87E03120CFFEDB6
:070CCF001D70F11C80EE22F4
:040D270043C610228D
:100ADF00C29FD29EC29DC2CDC2CC4387809000F4EC
:100AEF0012097000000082E47B0AFAF9F89000F412
:100AFF00E0FCA3E0FDA3E0FEA3E0FF1208D2EB9021
:100B0F0000F8F09000F4E0FCA3E0FDA3E0FEA3E00A
:100B1F00FFE47B0AFAF9F81208D29000F412096484
:100B2F009000F8E0C3940574809480401F9000F407
:100B3F00E0FCA3E0FDA3E0FEA3E02401FFE43EFE02
:100B4F00E43DFDE43CFC9000F4120964E589540F88
:100B5F004420F58943C9A09000F4A3A3A3E0F404B3
:080B6F00F58DD28ED299D29CC3
:010B7700225B
:080D17003098FDC298AF99224B
:080D1F008F993099FDC2992261
:100CD60075A15575A1AAEF600543B101800353B113
:070CE600FEE4F5A1F5FF2279
:030D2B008FFF2215
:100B7800457272457030526571436F64653D25302A
:100B880032580A0045727245703052657153697A5D
:100B9800650A007A7A005374617274204043686968
:100BA8007049443D253032580A002563001201106F
:100BB80001FF80550848433755000101020001092B
:100BC80002270001010080320904000003FF80555C
:100BD80000070582024000000705020240000007E6
:100BE800058103400000040309040E037700630035
:100BF80068002E0063006E000C03430048003500B7
:040C0800350034007F
:04003E00410121005B
:0300430002004672
:0D004600C0E0C0F0C083C082C0D075D008FB
:1000530020D9030203D130DF030203CDE5D9543F96
:1000630070030203C524E0700302034E14605B14A3
:10007300604A24F26062242E60030203CD20DE0373
:100083000203CD63D4809000CAE5DBF0E4FF900067
:10009300CAE0FEEFC39E501C744A2FF582E434007D
:1000A300F583E0F4FD748A2FF582E43400F583EDE3
:1000B300F00F80DA8ED553D4FC0203CD63D440E530
:1000C300D454FC4402F5D40203CD63D240E5D254A8
:1000D300FC4402F5D20203CD75DCC09000CAE5DB17
:1000E300F0E06408600302030E900006E090011D37
:1000F300F0900007E0700D90011DE0D3947F7480B1
:100103009480400690011D747FF09000CAE4F09043
:100113000001E090011CF0900000E05460600302D5
:1001230002B190011CE070030202D31470030202B7
:100133007524FC700302024524FD7003020250146F
:10014300700302026A1470030202B92404600302FA
:1001530002F4900003E024FE601D1460302402705A
:100163007B90011E74FFF0A3740BF0A374B5F090A1
:1001730000CA7412F0806B90011E74FFF0A3740B1D
:10018300F0A374C7F09000CA7427F0805590000262
:10019300E0603324FE601904704290011E74FFF086
:1001A300A3740BF0A374F2F09000CA740EF08032C3
:1001B30090011E74FFF0A3740CF0A37400F0900080
:1001C300CA740CF0801C90011E74FFF0A3740BF032
:1001D300A374EEF09000CA7404F080069000CA7411
:1001E300FFF09000CAE0FF90011DE0D39F4002EFB3
:1001F300F090011DE0FFC394087480948040067E54
:1002030008EEFF80009000CAEFF07E007400F874DF
:1002130000FC7401FD90011EE0FBA3E0FAA3E0F9EA
:1002230012085A90011DE0FF9000CAE0FEC3EF9E42
:1002330090011DF0EEFF90011FE48FF01208800281
:10024300031C900002E090011DF002031C900121A9
:10025300E0900000F090011DE0C39401748094804D
:10026300500302031C8061900002E0900121F00220
:10027300031C900000E0541F64027032900004E0FD
:100283001460241460122481601314701FE5D45485
:10029300BC4402F5D402031C53D473807CE5D254CE
:1002A300BC4402F5D2807253D273806D80009000FB
:1002B300CA74FFF08063900000E4F090011DE0C376
:1002C30094017480948040519000CA7401F0804975
:1002D300900000E4F0A3F090011DE0FFC3940274CA
:1002E3008094809000CA40057402F0802CEFF08067
:1002F300289000CA74FFF0FB7A0B797890011CE018
:10030300FF9000F7E4F0A3EFF0800B9000CA74FFB6
:10031300F0FB7A0B798C1204909000CAE0FF7E0008
:10032300F4700C90011C74FFF075DCCF0203CDD385
:10033300EF9408EE6480948050089000CAE0F5DDE5
:10034300800375DD0075DCC00203CD90011CE02441
:10035300FB605C14706790011DE0FFC39408748018
:10036300948040067E08EEFF80009000CAEFF07E86
:10037300007400F87400FC7401FD90011EE0FBA3FF
:10038300E0FAA3E0F912085A90011DE0FF9000CAB9
:10039300E0FEC3EF9E90011DF0EEFF90011FE48F7E
:1003A300F01208809000CAE0F5DD63DC40801BE5B5
:1003B300E35480FF90011DE04FF5E3800A75DD00F3
:1003C300800590011CE0FF75DC02C2D9804930D85A
:1003D3001475DC0275D20275D40275E300C2DAC269
:1003E300D9C2D8803230DA2CC2DAE5DA30E2287B9F
:1003F300FF7A0B799B120490E5A220E7FB75A155C8
:1004030075A1AA75A98143870275A15575A1AA751E
:07041300A900800375D8FF6A
:0B041A00D0D0D082D083D0F0D0E032F0
:10000300C2EAE4F5E275EA4075EB0C7400FE740095
:100013008EEDF5EC7400FE740A8EEFF5EE7400FEBF
:10002300744A8EE5F5E4E4F5E375D18075E229437E
:0B003300D10175D8FF75E107D2EA2269
:100A3F00120CED7F057E00120CBF120ADF7BFF7ACE
:100A4F000B799EAFA19000F7E4F0A3EFF0120490A2
:100A5F00120003D2AF120D0D9000F3EFF07BFF7A6F
:100A6F000B79B29000F7F01204909000F3E0FFC3FF
:100A7F00943040E1EFD3947A50DBEF24D0FFE4348D
:100A8F00FFFAEFF97BFFEBC0E0EAC0E0E9C0E074EA
:100A9F000AF87400FC7401FDD0E0F9D0E0FAD0E060
:100AAF00FB7E007F4012085A9000F3E0FF24D0FD38
:100ABF00E434FFFCD3ED9408EC6480948040067E10
:100ACF0008EEFF8004EF24D0FF8FD353D2FC808534
:03000000020C0CE3
:0C0C0C00787FE4F6D8FD758122020C53BD
:10078A00E709F608DFFA8046E709F208DFFA803E51
:10079A0088828C83E709F0A3DFFA8032E309F6083E
:1007AA00DFFA8078E309F208DFFA807088828C83A6
:1007BA00E309F0A3DFFA806489828A83E0A3F6085A
:1007CA00DFFA805889828A83E0A3F208DFFA804C34
:1007DA0080D280FA80C680D4806980F2803380100B
:1007EA0080A680EA809A80A880DA80E280CA803374
:1007FA0089828A83ECFAE493A3C8C582C8CCC583EC
:10080A00CCF0A3C8C582C8CCC583CCDFE9DEE780BB
:10081A000D89828A83E493A3F608DFF9ECFAA9F03A
:10082A00EDFB2289828A83ECFAE0A3C8C582C8CC90
:10083A00C583CCF0A3C8C582C8CCC583CCDFEADEA9
:10084A00E880DB89828A83E493A3F208DFF980CC0B
:10085A0088F0EF60010E4E60C388F0ED2402B40404
:10086A000050B9F582EB2402B4040050AF232345AB
:06087A0082239007DA73EF
:10088000C5F0F8A3E028F0C5F0F8E5821582700203
:060890001583E038F022A0
:1008960075F008758200EF2FFFEE33FECD33CDCC19
:1008A60033CCC58233C5829BED9AEC99E58298409C
:1008B6000CF582EE9BFEED9AFDEC99FC0FD5F0D679
:1008C600E4CEFBE4CDFAE4CCF9A88222B800C1B9A3
:1008D6000059BA002DEC8BF084CFCECDFCE5F0CBE1
:1008E600F97818EF2FFFEE33FEED33FDEC33FCEB1A
:1008F60033FB10D703994004EB99FB0FD8E5E4F9D5
:10090600FA227818EF2FFFEE33FEED33FDEC33FCC1
:10091600C933C910D7059BE99A4007EC9BFCE99AB5
:10092600F90FD8E0E4C9FAE4CCFB2275F010EF2FFA
:10093600FFEE33FEED33FDCC33CCC833C810D707FA
:100946009BEC9AE899400AED9BFDEC9AFCE899F835
:0E0956000FD5F0DAE4CDFBE4CCFAE4C8F922C8
:0C096400ECF0A3EDF0A3EEF0A3EFF02206
:10097000A8828583F0D083D082120987120987125A
:100980000987120987E473E493A3C583C5F0C5837F
:10099000C8C582C8F0A3C583C5F0C583C8C582C8D1
:0109A0002234
:10042500E51524F7F582E43400F583E005152290FF
:1004350000F43010039000F7E475F0011209F90299
:1004450009A12009E97F2ED2098018EF540F2490C5
:10045500D43440D4FF300D0BEF24BFB41A00500341
:100465002461FFE516600215160519E519700205E8
:100475001830100E9000F4E475F0011209F9EF023E
:1004850009E7020C987403D2108003E4C210F51535
:100495009000F4120A10E4F516F518F519E5166042
:1004A500077F2012046880F57517FFC20AC209C2CA
:1004B5000BC20CC20EC20FC211120434FF700D30F4
:1004C50010057F00120479AF19AE1822B4255FC25A
:1004D500D5C20D120434FF24D0B40A00501A75F0A9
:1004E5000A781630D50508B6FF0106C6A426F620FB
:1004F500D5047002D20C80D924CFB41A00EF500471
:10050500C2E5D20D02067AD20A80C6D20980C0D2CF
:100515000B80BCD2D580BAD20E80B47F201204687D
:10052500200B077401B5160040F1120425FF1204D3
:10053500680204A2D211D20F8095120425FB120481
:1005450025FA120425F94A4B7006794B7A077BFF89
:10055500200B2EE516602A7E008E82758300120917
:10056500BA60060EEE651770F0C2D5EBC0E0EAC0C2
:10057500E0E9C0E0EE1206C1D0E0F9D0E0FAD0E043
:10058500FB1209A1FF60AAEBC0E0EAC0E0E9C0E008
:10059500120468D0E02401F9D0E03400FAD0E0FB81
:1005A500E5170460DCD517D980877BFF7A0679BD0E
:1005B500D20B809C791080027908C20FC211800885
:1005C500D2D5790A8004790AC2D5E517047002F5F7
:1005D50017E4FAFDFEFF120425FC7B08200A13121E
:1005E5000425FD7B1030090A120425FE120425FF9F
:1005F5007B20EC3382D592D55013C3E43009069F96
:10060500FFE49EFEE4200A039DFDE49CFCE4CBF898
:10061500C20AEC700CCFCECDCCE824F8F870F3808C
:1006250017C3EF33FFEE33FEED33FDEC33FCEB3355
:10063500FB994002FB0FD8E9EB300A05F8D0E0C47E
:1006450048B20AC0E00AEC4D4E4F78207B0070C2DC
:10065500EAB5170040BCC0E01206C3D0F0D0E020D8
:100665000A04C4C0E0C4B20AC0F0120451D0F0D5E7
:10067500F0EB0204A2120A19053F5305B9580510FB
:100685004C050C4205BD4F05C54405C54905254327
:0806950005CB5505AF4605AF8A
:10069D004505AF47076B5005142D05182E053B2B4F
:1006AD00051C2305392007542A04D44800000533BE
:1006BD003F3F3F00790AA2D5200C14300E09B91026
:1006CD00020404B9080104A2D5200F025001042030
:1006DD000B68920BB516005034C0E07F20300C191A
:1006ED007F30A20B720F720E500F12071AC20BC27F
:1006FD000FC20EC2117F30800F300E03E9C0E01221
:10070D000468300E03D0E0F9D0E0B516CC300E17EA
:10071D007F30B9100C1204687F58300D077F788038
:10072D0003B90803120468300B057F2D0204687F9E
:10073D00202011F87F2B200FF322920B80CF286EF3
:10074D00756C6C2900D20A120425300AF8C20A7899
:10075D001630D50108F60204D42D50434958120421
:10076D00252403B405004001E49007669312045953
:0D077D00743A120459D20C7516040205B925
:0A0D0D003098FDAF99C2987E0022D5
:100C1800020A3FE493A3F8E493A34003F68001F2A9
:100C280008DFF48029E493A3F85407240CC8C333DD
:100C3800C4540F4420C8834004F456800146F6DFAC
:100C4800E4800B010204081020408090003EE47EFE
:100C5800019360BCA3FF543F30E509541FFEE493A1
:100C6800A360010ECF54C025E060A840B8E493A368
:100C7800FAE493A3F8E493A3C8C582C8CAC583CA93
:100C8800F0A3C8C582C8CAC583CADFE9DEE780BE4B
:0100420000BD
:1009A100BB010689828A83E0225002E722BBFE0254
:0909B100E32289828A83E4932287
:1009BA00BB010CE58229F582E5833AF583E02250F2
:1009CA0006E92582F8E622BBFE06E92582F8E2223C
:0D09DA00E58229F582E5833AF583E4932256
:1009E700BB010689828A83F0225002F722BBFE01EF
:0209F700F322E9
:1009F900F8E0FBA3A3E0F925F0F0E5821582700287
:070A09001583E0FA38F0222A
:090A1000EBF0A3EAF0A3E9F022E7
:100A1900D083D082F8E4937012740193700DA3A36C
:100A290093F8740193F5828883E473740293686080
:060A3900EFA3A3A380DF80
:100C9800EFB40A07740D120CA3740A309811A899BE
:100CA800B8130CC2983098FDA899C298B811F630BC
:070CB80099FDC299F5992294
:00000001FF
