:100B9600E7323334353605010906A101050719E0A8
:100BA60029E715002501750195088102950175084B
:100BB600810195037501050819012903910295051F
:100BC600750191019506750826FF0005071900298C
:100BD600918100C0050C0901A101150025010AEA51
:100BE600000AE9000AE2000A8A010A83010A2302CE
:100BF6000ACD000AB6000AB5000AB7000A00000AC4
:100C060000000A00000A00000A00000A00000A00AC
:100C1600000A00000A00000A00000A00000A00009C
:100C26000A00000A112275019518810205011900B2
:100C3600298315002583750895018100C0120110CE
:100C460001000000083D413A55000000000001097E
:100C5600023B00020101A064090400000103010136
:100C660000092111010001223E0007058103080049
:100C76000A09040100010300000009210001000126
:0A0C86002269000705820304000A3A
:10103700014500013400012C00012E00013101019E
:1010470046018495000003E8849900000000082108
:101057000000000000000000044100000000819F24
:1010670000014800849000000000819400819E00E8
:09107700819D00012D00012F00F4
:10127300EF1392B4EFC313139295EF1313543F1369
:101283009294EF131313541F139291EFC4540F133B
:101293009297EFC41354071392B1EFC4131354037B
:0E12A3001392B2EFC413131354011392B3222B
:10123100E4FFA2B333CFEFCF25E0FFA2B2E4334FF7
:1012410025E0FFA2B1E4334F25E0FFA297E4334F3D
:1012510025E0FFA291E4334F25E0FFA294E4334F50
:1012610025E0FFA295E4334F25E0FFA2B4E4334F1C
:01127100FF7D
:011272002259
:1010FD00C2EAE4F5E2CE7400CECF7400CF8EED8F50
:10110D00ECCE7400CECF740ACF8EEF8FEECE74007E
:10111D00CECF7450CF8EE58FE475EA67E5EB54FEC4
:10112D004404F5EB75DC0275D24275D412E4F5E397
:10113D0075D18075E22943D10175D8FF75E107D2CC
:02114D00EA2294
:1013D900C8740AC8CC7400CCCD7401CD7B007A00E6
:1013E90079217E007F0812047C75D30853D2FC2230
:1013F900C87450C8CC7400CCCD7401CD7B007A0080
:1014090079417E007F0412047C75D50453D4FC22F3
:0300430002004672
:0D004600C0E0C0F0C083C082C0D075D008FB
:1000530020D903020382E5D9543F700302034124EC
:10006300E070030202E214601824F16025240E609C
:100073000302038075D500E5D454FC4402F5D48013
:100083000B75D300E5D254FC4402F5D2752B010263
:10009300038085DB49E549640860030202B59000EB
:1000A30006E0F532A3E0700BD3E532947F748094BD
:1000B30080400375327F754900900001E0F533906D
:1000C3000000E054606018E5331424FD400302028D
:1000D300B824FB24FD40030202B880000202B5E508
:1000E30033B40B0040030202B39000F3F8282873E3
:1000F3000202970201E40202B302021E0202B302E9
:1001030001B80201140202B30201C10201DB0202BF
:10011300B8900003E024FE601624E06020242170E0
:1001230048753EFF753F0C754043754912803D7518
:100133003EFF753F0C75405575493B802F90000479
:10014300E0FF7E00700C753EFF753F0B75409C759C
:10015300493EEF64014E7011753EFF753F0B7540CC
:10016300DA75496975470180037549FFE532D3950F
:10017300494003854932C3E5329408748094804032
:10018300047F088002AF328F497E00C87400C8CC58
:100193007400CCCD7401CDAB3EAA3FA94012047CC0
:1001A300C3E5329549F532E5492540F540E4353F4D
:1001B300F53F0202B8900002E0F5320202B8900067
:1001C30000E529F0C3E53294017480948050030262
:1001D30002B87549010202B8900002E0F529020253
:1001E300B8900000E0541F6402702D900004E014E6
:1001F300601D2480600E14701CE5D454BC4402F5C9
:10020300D40202B8E5D254BC4402F5D20202B85378
:10021300D2730202B80202B50202B5900000E054A4
:100223001FFD7C00701B900003E0FE900002E0FBCA
:10023300EB64014E7009900C5C9320E57880738029
:1002430071ED64024C704B900003E0FE900002E0FD
:10025300FDED4E703B900005E0FE900004E0FDEDE7
:10026300FFEE702AEF24FE60112481601714701EC4
:10027300E5D454BF4403F5D4803BE5D4547F440C08
:10028300F5D48031E5D254BF4403F5D280278022D0
:100293008020801E900000E4F0A3F0C3E5329402B6
:1002A300748094804005754902800A85324980052F
:1002B30080007549FFAF497E00EFF470097533FF85
:1002C30075DCCF020380D3EF9408EE6480948050F2
:1002D300058549DD800375DD0075DCC0020380E51B
:1002E3003324FB604714704EC3E532940874809442
:1002F3008040047F088002AF328F497E00C87400BB
:10030300C8CC7400CCCD7401CDAB3EAA3FA940123A
:10031300047CC3E5329549F532E5492540F540E4CF
:10032300353FF53F8549DD63DC408051E5E354808B
:100333004532F5E3800375DD0075DC02803F85DB24
:1003430049E53364097030E5496401702A9000007F
:10035300E0F530E5306011E4FF120691E4FF120688
:1003630091E4FF120691800F7FFF120691E4FF12C2
:100373000691E4FF12069175DD0075DC00C2D930E9
:10038300D81275DC0275D21075D41275E300C2DA87
:0E039300C2D9C2D830DA04C2DA800375D8FFAE
:0B03A100D0D0D082D083D0F0D0E0326A
:10137600E4F52B1213D9E52B60FCE4F52BFE7F0870
:10138600FDFB7A00792112065B1213D9E52B60FC6E
:011396002234
:10139700E4F52B1213F9E52B60FCE4F52BFE7F0433
:1013A700FDFB7A00794112065B1213F9E52B60FC0D
:0113B7002213
:08000300E547600312137622A9
:1012EA00E4F554F555E555455470047FFF8002E452
:1012FA00FF120691E4FF120691E4FF1206910555CA
:10130A00E55570020554C39411E5546480948040F5
:01131A00D4FE
:01131B0022AF
:100C9000EF1206350D1C770D217B0D267D0D2B7E69
:100CA0000D30800CF3B70CF8BB0D12BD0D17BE0C48
:100CB000DFD70CE4DB0CE9DD0CEEDE0CCBE70CD06F
:100CC000EB0CD5ED0CDAEE00000D36752353806386
:100CD000752354805E75235580597523568054754D
:100CE000235F804F752360804A752361804575239B
:100CF00057804075235C803B75235D120003E5300F
:100D000070347894E2702F04F2789FF2D2CA789D02
:100D1000F22275235E801C75235880177523598035
:100D20001275235A800D75235B8008752363800339
:070D3000752362120003228B
:10081900E5316546600CE5466005AF35120C9085FB
:100829003146E4FFFEFDFC7899E2FB08E2F908E2B3
:10083900FA08E2CBF8D31205EC40447895E2FC08BB
:10084900E2FD08E2FE08E2FF08E2FB08E2F908E23D
:10085900FA08E2CBF81205EC500302096CAF351225
:100869000C907895E2FC08E2FD08E2FE08E22464B7
:10087900FFE43EFEE43DFDE43CFC78950206107879
:100889009512061C000003E87894E26401600302F3
:10089900093AF2789EE2FB7A00700C04F278901221
:1008A900061C0000000022EB64014A600302096C87
:1008B9007FF47E01FDFC7890E2FB08E2F908E2FA98
:1008C90008E2CBF8C31205EC400302096C789DE2FB
:1008D9006401600302096C08F218F2C3E548940444
:1008E900748094804003E4F548E548146016146068
:1008F900241460322403706BE4F55CF55D0548F55A
:1009090058D28E22C28EE4F55CF55DF55B0548751B
:100919005801D28E22C28EE4F55CF55DF55B05487F
:10092900755802D28E22C28EE4F55B1212EA05488E
:1009390022789EE26401702B7FF47E01FDFC7890A1
:10094900E2FB08E2F908E2FA08E2CBF8C31205EC87
:100959004011E4789EF208F2789012061C0000001B
:0409690000C2CA22DC
:100DC300E4F557F556F555F5547557807556847502
:100DD300551EF554CFCFFCFDFEAB57AA56A955A817
:100DE300541204CFE47BE87A03F9F812055A8F57BB
:100DF3008E568D558C54C3E49557F557E49556F5A7
:100E03005674019555F555E49554F554E557240169
:100E1300F557E43556F556E43555F555E43554F5AF
:100E230054AF57AE56AD55FC78081205FD8F2C858F
:100E3300572EE58954F14401F589852C8C852E8A3A
:060E4300C28DD2A9D28C81
:010E49002286
:100E4A00E4F557F556F555F554755780755684757A
:100E5A00551EF554CFCFFCFDFEAB57AA56A955A88F
:100E6A00541204CFE47BE87A03F9F812055A8F5733
:100E7A008E568D558C54C3E49557F557E49556F51F
:100E8A005674019555F555E49554F554E5572401E2
:100E9A00F557E43556F556E43555F555E43554F528
:100EAA0054AF57AE56AD55FC78081205FD8F2D8507
:100EBA00572F43C9C0C2C9C2CDC2CCC2C8852DCD25
:050ECA00852FCCD2AD24
:010ECF002200
:03002B0002114F70
:10114F00C0E0C0F0C083C082C0D075D018C2CA3012
:10115F00CF2DC2CF789FE27890601DE2FC08E2FDB0
:10116F0008E2FE08E22401FFE43EFEE43DFDE43C1C
:10117F00FC7890120610800712061C00000000D2A7
:0C118F00CAD0D0D082D083D0F0D0E032A3
:10131C0012002E7F057E001214337F0A120DC37F3C
:10132C0019120ED07F01120E4AC28EC2CA1210FDC3
:10133C00D2AFE4F5D3F5D5F52BF54712081980FBA0
:100FCC007FF0121273121231EF64F0700320964B03
:100FDC00121231EF64F0700320964FE4F5311212C7
:100FEC0031EF64F06012121231CEEFCE7F0F12127D
:100FFC0073121231EF4EF5352096037535807899C2
:10100C00E2FC08E2FD08E2FE08E22419FFE43EFEE1
:10101C00E43DFDE43CFC7899020610E4F5357531AD
:0A102C0001789912061C0000000074
:011036002297
:03000B000213B825
:1013B800C0E0C0F0C083C082C0D075D010852C8C2E
:1013C800852E8A120FCCD0D0D082D083D0F0D0E036
:0113D80032E2
:10002E0075A15575A1AAE5B954F84406F5B9E4F5DC
:02003E00A122FD
:10141900EF4E601505A105A105A105A105A105A12D
:0A14290005A1EF1F70EA1E80E72204
:10143300AD07AC06ED4C600E7FE87E03121419ED88
:071443001D70F11C80EE2278
:0400160043C61022AB
:100F5300C29FD29EC29DC2CDC2CC438780E475613D
:100F630004756001F55FF55E7B0AFAF9F8AF61AECF
:100F730060AD5FAC5E12055AAF038F62AF61AE60C6
:100F8300AD5FAC5EE47B0AFAF9F812055A8F618E05
:100F9300608D5F8C5EC3E56294057480948040111C
:100FA300EF2401F561E43EF560E43DF55FE43CF5D3
:100FB3005EE589540F4420F58943C9A0E561F40433
:080FC300F58DD28ED299D29C6B
:010FCB002203
:08000E003098FDC298AF992261
:08001E008F993099FDC299226F
:10144A0075A15575A1AAEF600543B101800353B197
:07145A00FEE4F5A1F5FF22FD
:030026008FFF2227
:10096D00200BE31D0AC91707A515078F11057A0F6F
:10097D0005650C045106022B0301120000001FDB5C
:10098D00041BBC0317A703159203127D020F680207
:10099D000C5401073401052101000000DA6403BC89
:1009AD005603A74D039544027D3902683002542643
:1009BD00013F1D011A0C00000000FFFFFFFFFFFFAC
:1009CD00FFFFFFFFFFFFFFF0DCC8B4A08C78645081
:1009DD003C28140000000000000000000000000092
:1009ED0000000000000000000000000000000014E6
:1009FD00283C5064788CA0B4C8DCF00000000000E6
:100A0D0000000000000000000000000000000000D9
:100A1D0000000000000014283C5064788CA0B4C87D
:100A2D00DCF0FFFFFFFFFFFFFFFFFFFFFFFFFFFFFB
:100A3D00FFFFFFFFFFFFFFFFFFFFFFFF0014283C3D
:100A4D005064788CA0B4C8DCF0FFFFFFFFFFFFFF00
:100A5D00FFFFFFFFFFFFFFFFFFFFFFFFFFFFFFFF99
:100A6D00FFFFFFF0DCC8B4A08C7864503C28140064
:0D0A7D00000000000000000000000000006C
:10108000814C00015900015A00015B00025C000024
:09109000814E01015800814D0060
:0A0687008553827583001204A2FF60
:10069100EF30E717D2B000000000000000000000BA
:1006A10000000000000000C2B08016D2B0000000BF
:1006B1000000C2B0000000000000000000000000C7
:1006C10000EF30E617D2B00000000000000000008B
:1006D1000000000000000000C2B08016D2B000008F
:1006E100000000C2B0000000000000000000000097
:1006F1000000EF30E517D2B000000000000000005C
:10070100000000000000000000C2B08016D2B0005E
:1007110000000000C2B00000000000000000000066
:10072100000000EF30E417D2B0000000000000002C
:1007310000000000000000000000C2B08016D2B02E
:100741000000000000C2B000000000000000000036
:1007510000000000EF30E317D2B0000000000000FD
:100761000000000000000000000000C2B08016D2AE
:10077100B00000000000C2B0000000000000000056
:100781000000000000EF30E217D2B00000000000CE
:10079100000000000000000000000000C2B0801650
:1007A100D2B00000000000C2B00000000000000054
:1007B100000000000000EF30E117D2B0000000009F
:1007C10000000000000000000000000000C2B08036
:1007D10016D2B00000000000C2B00000000000000E
:1007E10000000000000000EF30E016D2B000000071
:1007F1000000000000000000000000000000C2B086
:1008010022D2B00000000000C2B0000000000000D1
:080811000000000000000022BD
:0211E700AE0751
:0C11E900E478A3F2F278A3E2C39E503B2E
:1011F500784CE2FD8EF0A4FF78A0F208EDF2784C71
:10120500E28EF08478A2F2EE75F005A48EF0A4FDCE
:10121500784CE22DF212069178A1E2FF12069108B0
:05122500E2FF1206913A
:06122A0008E204F280BEA0
:01123000229B
:02109A00AE079F
:10109C00E4784FF2784FE2C39411748094805050EE
:1010AC00EE75F003A4246EF582E43409F583E49321
:1010BC00FF120691EE75F003A4246DF582E4340959
:1010CC00F583E493FF120691EE75F003A4246FF5FB
:1010DC0082E43409F583E493FF1206910EEEC39477
:1010EC001E748094804002E4FE784FE204F280A4E7
:0110FC0022D1
:0612B1008B4A8A4B894CB8
:1012B700E4784FF2784FE2C39411748094805022FF
:1012C700AB4DAA4EA94F120687AB4AAA4BA94C129F
:1012D7000687AB50AA51A952120687784FE204F24B
:0212E70080D2B3
:0112E90022E2
:02119B00AE079D
:10119D00784FEEF2EE2411FDE433FC784FE2FFC3FD
:1011AD009DEC6480F8748098502FC3ED9441EC64ED
:1011BD008094804002E4FEEF900A0893FF1206919E
:1011CD00784FE29009C793FF120691E2900A499376
:0911DD00FF120691E204F280BB4E
:0111E60022E6
:100ED000E4F557F556F555F55475578075568475F4
:100EE000551EF554FCFDFEAB57AA56A955A8541241
:100EF00004CFE47BE87A03F9F812055A8F578E562F
:100F00008D558C54C3E49557F557E49556F55674B2
:100F1000019555F555E49554F554E5572401F557D9
:100F2000E43556F556E43555F555E43554F554AFEA
:100F300057AE56AD55FC78081205FD8F5985575AA6
:100F4000E589541F4410F58985598D855A8BC28FC8
:020F5000D2AB22
:010F5200227C
:10134C00E4FBFAAC02AD03C3ED941EEC6480948014
:10135C00500CAF0512109A0DBD00010C80E90BBBAF
:09136C0000010AEB64104A70DA7A
:011375002255
:03001B00020A8A4C
:100A8A00C0E0C0F0C083C082C0D075D000C000C032
:100A9A0001C002C003C004C005C006C00785598D45
:100AAA00855A8B055BE55814603C147003020B4FA2
:100ABA0024026003020B7BC3E55B94087480948074
:100ACA005003020B7BAF5D12109A055DE55D700263
:100ADA00055CC3941EE55C648094804006755C00E6
:100AEA00755D00020B78C3E55B94087480948050AE
:100AFA0003020B7B755B00754DFF754E0A754F0837
:100B0A007550FF75510A755249855D537BFF7A0905
:100B1A0079C71212B1784DE27018055DE55D700271
:100B2A00055CC39440E55C6480948040447401F29F
:100B3A00803FE55D155D7002155CE55D455C7031D1
:100B4A00784DF2802CC3E55B940874809480402130
:100B5A00AF5D12119B055DE55D7002055CC39441B2
:100B6A00E55C648094804006755C00755D00755B89
:100B7A0000D007D006D005D004D003D002D001D0CF
:0C0B8A0000D0D0D082D083D0F0D0E03278
:03000000020D37B7
:0C0D3700787FE4F6D8FD758162020D7E25
:1003AC00E709F608DFFA8046E709F208DFFA803E33
:1003BC0088828C83E709F0A3DFFA8032E309F60820
:1003CC00DFFA8078E309F208DFFA807088828C8388
:1003DC00E309F0A3DFFA806489828A83E0A3F6083C
:1003EC00DFFA805889828A83E0A3F208DFFA804C16
:1003FC0080D280FA80C680D4806980F280338010ED
:10040C0080A680EA809A80A880DA80E280CA803355
:10041C0089828A83ECFAE493A3C8C582C8CCC583CD
:10042C00CCF0A3C8C582C8CCC583CCDFE9DEE7809D
:10043C000D89828A83E493A3F608DFF9ECFAA9F01C
:10044C00EDFB2289828A83ECFAE0A3C8C582C8CC72
:10045C00C583CCF0A3C8C582C8CCC583CCDFEADE8B
:10046C00E880DB89828A83E493A3F208DFF980CCED
:10047C0088F0EF60010E4E60C388F0ED2402B404E6
:10048C000050B9F582EB2402B4040050AF2323458D
:06049C0082239003FC73B3
:1004A200BB010CE58229F582E5833AF583E022500F
:1004B20006E92582F8E622BBFE06E92582F8E22259
:0D04C200E58229F582E5833AF583E4932273
:1004CF00E88FF0A4CC8BF0A42CFCE98EF0A42CFCCC
:1004DF008AF0EDA42CFCEA8EF0A4CDA8F08BF0A44A
:1004EF002DCC3825F0FDE98FF0A42CCD35F0FCEBA9
:1004FF008EF0A4FEA9F0EB8FF0A4CFC5F02ECD396E
:0F050F00FEE43CFCEAA42DCE35F0FDE43CFC22DA
:10051E0075F008758200EF2FFFEE33FECD33CDCC94
:10052E0033CCC58233C5829BED9AEC99E582984017
:10053E000CF582EE9BFEED9AFDEC99FC0FD5F0D6F4
:10054E00E4CEFBE4CDFAE4CCF9A88222B800C1B91E
:10055E000059BA002DEC8BF084CFCECDFCE5F0CB5C
:10056E00F97818EF2FFFEE33FEED33FDEC33FCEB95
:10057E0033FB10D703994004EB99FB0FD8E5E4F950
:10058E00FA227818EF2FFFEE33FEED33FDEC33FC3D
:10059E00C933C910D7059BE99A4007EC9BFCE99A31
:1005AE00F90FD8E0E4C9FAE4CCFB2275F010EF2F76
:1005BE00FFEE33FEED33FDCC33CCC833C810D70776
:1005CE009BEC9AE899400AED9BFDEC9AFCE899F8B1
:0E05DE000FD5F0DAE4CDFBE4CCFAE4C8F92244
:1005EC00EB9FF5F0EA9E42F0E99D42F0E89C45F065
:0105FC0022DC
:1005FD00E8600FECC313FCED13FDEE13FEEF13FFDC
:03060D00D8F122FF
:0C061000ECF208EDF208EEF208EFF22226
:10061C00D083D082E493F208740193F208740293AD
:09062C00F208740393F2740473E4
:10063500D083D082F8E4937012740193700DA3A354
:1006450093F8740193F5828883E473740293686068
:06065500EFA3A3A380DF68
:10065B00EF4E6012EF60010EEDBB010B89828A83B6
:10066B00F0A3DFFCDEFA2289F05007F709DFFCA9C3
:0C067B00F022BBFEFCF309DFFCA9F0221A
:100D430002131CE493A3F8E493A34003F68001F297
:100D530008DFF48029E493A3F85407240CC8C333B1
:100D6300C4540F4420C8834004F456800146F6DF80
:100D7300E4800B0102040810204080901037E47EC9
:100D8300019360BCA3FF543F30E509541FFEE49375
:100D9300A360010ECF54C025E060A840B8E493A33C
:100DA300FAE493A3F8E493A3C8C582C8CAC583CA67
:100DB300F0A3C8C582C8CAC583CADFE9DEE780BE1F
:011099000056
:00000001FF
