:10075E00200BE31D0AC91707A515078F11057A0F80
:10076E0005650C045106022B0301120000001FDB6D
:10077E00041BBC0317A703159203127D020F680218
:10078E000C5401073401052101000000DA6403BC9A
:10079E005603A74D039544027D3902683002542654
:0A07AE00013F1D011A0C00000000BD
:1008A000010800010C00020E0000020A000001090C
:1008B00000010D0081070181050081080081090008
:0F08C00001120084000000000081040081060086
:1007B800E4FFFE1201C9FDC374079FFCF8ED088031
:1007C80002C313D8FC30E017D2B0000000000000CC
:1007D8000000000000000000000000C2B08002D24B
:1007E800B00000000000C2B00000000000000000DF
:1007F80000000000000FBF00010EEF64084E70B348
:0108080022CD
:10002E0075F003ED120348EC75F003A42583F583F8
:03003E00E493FF49
:10004100EF30E717D2B00000000000000000000010
:1000510000000000000000C2B08016D2B000000015
:100061000000C2B00000000000000000000000001D
:1000710000EF30E617D2B0000000000000000000E1
:100081000000000000000000C2B08016D2B00000E5
:10009100000000C2B00000000000000000000000ED
:1000A1000000EF30E517D2B00000000000000000B2
:1000B100000000000000000000C2B08016D2B000B5
:1000C10000000000C2B000000000000000000000BD
:1000D100000000EF30E417D2B00000000000000083
:1000E10000000000000000000000C2B08016D2B085
:1000F1000000000000C2B00000000000000000008D
:1001010000000000EF30E317D2B000000000000053
:100111000000000000000000000000C2B08016D204
:10012100B00000000000C2B00000000000000000AC
:100131000000000000EF30E217D2B0000000000024
:10014100000000000000000000000000C2B08016A6
:10015100D2B00000000000C2B000000000000000AA
:10016100000000000000EF30E117D2B000000000F5
:1001710000000000000000000000000000C2B0808C
:1001810016D2B00000000000C2B000000000000064
:1001910000000000000000EF30E016D2B0000000C7
:1001A1000000000000000000000000000000C2B0DC
:1001B10022D2B00000000000C2B000000000000028
:0801C100000000000000002214
:10098E00AE07AC03AF05120041AF06120041AF0433
:03099E0002004113
:02085500AD07ED
:10085700E4FBFAED2401FFE433FEC3EB9FEA9E506D
:010867003759
:10086800E50AF521752000F522850B23E50BF4F543
:1008780025E50AF4F5247464250BF50BE4350AF52F
:100888000AAF21120041AF23120041AF25120041E7
:070898000BBB00010A80BB4D
:01089F002236
:1008D000AD07AC0690075F12002E90075E12002E47
:1008E00090076075F003ED120348EE75F003A42540
:0908F00083F583E493FF0200414B
:10066200E4F529F528F527F526752980752884757E
:10067200271EF526FCFDFEAB29AA28A927A82612CB
:1006820001E2E47BE87A03F9F812026D8F298E28E1
:100692008D278C26C3E49529F529E49528F528743D
:1006A200019527F527E49526F526E5292401F52964
:1006B200E43528F528E43527F527E43526F526AF75
:1006C20029AE28AD27FC78081203108F0885290C63
:1006D200E58954F14401F58985088C850C8AC28D1F
:0206E200D2A99B
:0106E40022F3
:1005DE00E4F531F530F52FF52E75318075308475D3
:1005EE002F1EF52EFCFDFEAB31AA30A92FA82E1220
:1005FE0001E2E47BE87A03F9F812026D8F318E3056
:10060E008D2F8C2EC3E49531F531E49530F5307491
:10061E0001952FF52FE4952EF52EE5312401F531B8
:10062E00E43530F530E4352FF52FE4352EF52EAFC9
:10063E0031AE30AD2FFC78081203108F0985310DC5
:10064E0043C9C0C2C9C2CDC2CCC2C88509CD850DB1
:03065E00CCD2AD4E
:010661002276
:10097A00EF75F00A84FEEF75F00A84AFF0EEC45406
:03098A00F02FFF4C
:01098D002247
:1004B40020951D7F087E0012094C309503020551DA
:1004C4007804E2600302055104F27808F2D2CA22E9
:1004D4007804E26401703DF27806E2FB7A00700C65
:1004E40004F2780012032F0000000022EB64014A9A
:1004F400705B7FF47E01FDFC7800E2FB08E2F90802
:10050400E2FA08E2CBF8C31202FF5041E47806F2A3
:10051400FF0209CF7806E2640170327FF47E01FDA8
:10052400FC7800E2FB08E2F908E2FA08E2CBF8C33F
:100534001202FF4018E47806F27F011209CFE47832
:0E05440008F2780012032F00000000C2CA2245
:03002B00020809BF
:10080900C0E0C0F0C083C082C0D075D018C2CA3061
:10081900CF2DC2CF7808E27800601DE2FC08E2FD26
:1008290008E2FE08E22401FFE43EFEE43DFDE43C6B
:10083900FC7800120323800712032F00000000D266
:0C084900CAD0D0D082D083D0F0D0E032F2
:100917001209A17F087E0012094C7F011205DEC271
:0B092700CA1209B3D2AF1204B480FB67
:1009A10075A15575A1AAE5B954F84406F5B9E4F560
:0209B100A12281
:10093200EF4E601505A105A105A105A105A105A11F
:0A09420005A1EF1F70EA1E80E722F6
:10094C00AD07AC06ED4C600E7FE87E03120932ED6C
:07095C001D70F11C80EE226A
:0409D70043C61022E1
:1006E500C29FD29EC29DC2CDC2CC438780E47516FF
:1006F50004751501F514F5137B0AFAF9F8AF16AE72
:1007050015AD14AC1312026DAF038F17AF16AE15EE
:10071500AD14AC13E47B0AFAF9F812026D8F168E4C
:10072500158D148C13C3E5179405748094804011BE
:10073500EF2401F516E43EF515E43DF514E43CF52A
:1007450013E589540F4420F58943C9A0E516F4043F
:08075500F58DD28ED299D29CE1
:01075D002279
:080022003098FDC298AF99224D
:0809BF008F993099FDC29922C5
:1009630075A15575A1AAEF600543B101800353B189
:07097300FEE4F5A1F5FF22EF
:0309DB008FFF2269
:10035400EF30E716D2B300000000000000000000F8
:10036400000000000000C2B38012D2B300000000FD
:1003740000C2B3000000000000000000EF30E616E9
:10038400D2B30000000000000000000000000000E4
:100394000000C2B38012D2B30000000000C2B30058
:1003A4000000000000000000EF30E516D2B30000AA
:1003B4000000000000000000000000000000C2B3C4
:1003C4008012D2B30000000000C2B300000000009D
:1003D40000000000EF30E416D2B30000000000007B
:1003E40000000000000000000000C2B38012D2B37D
:1003F4000000000000C2B300000000000000000084
:10040400EF30E316D2B3000000000000000000004B
:10041400000000000000C2B38012D2B3000000004C
:1004240000C2B3000000000000000000EF30E2163C
:10043400D2B3000000000000000000000000000033
:100444000000C2B38012D2B30000000000C2B300A7
:100454000000000000000000EF30E116D2B30000FD
:100464000000000000000000000000000000C2B313
:100474008012D2B30000000000C2B30000000000EC
:1004840000000000EF30E015D2B3000000000000CF
:1004940000000000000000000000C2B322D2B3003C
:1004A40000000000C2B300000000000000000022B1
:10000300AE07AC03AF2D152DEF6011AF05120354EE
:0F001300AF06120354AF0412035480E8C2B322A5
:1008F900AE07AF061EEF600DE4FF12035412035456
:0E09090012035480EDC2B37F2C7E010209322E
:0C09B300C2C7D2C5D2C475C2E6C2C122C0
:0809C70030C0FDC2C0AFC12227
:0809CF008FC130C1FDC2C1223D
:03000000020552A4
:0C055200787FE4F6D8FD75813102059930
:1001C900BB010689828A83E0225002E722BBFE0234
:0901D900E32289828A83E4932267
:1001E200E88FF0A4CC8BF0A42CFCE98EF0A42CFCBC
:1001F2008AF0EDA42CFCEA8EF0A4CDA8F08BF0A43A
:100202002DCC3825F0FDE98FF0A42CCD35F0FCEB98
:100212008EF0A4FEA9F0EB8FF0A4CFC5F02ECD395D
:0F022200FEE43CFCEAA42DCE35F0FDE43CFC22CA
:1002310075F008758200EF2FFFEE33FECD33CDCC84
:1002410033CCC58233C5829BED9AEC99E582984007
:100251000CF582EE9BFEED9AFDEC99FC0FD5F0D6E4
:10026100E4CEFBE4CDFAE4CCF9A88222B800C1B90E
:100271000059BA002DEC8BF084CFCECDFCE5F0CB4C
:10028100F97818EF2FFFEE33FEED33FDEC33FCEB85
:1002910033FB10D703994004EB99FB0FD8E5E4F940
:1002A100FA227818EF2FFFEE33FEED33FDEC33FC2D
:1002B100C933C910D7059BE99A4007EC9BFCE99A21
:1002C100F90FD8E0E4C9FAE4CCFB2275F010EF2F66
:1002D100FFEE33FEED33FDCC33CCC833C810D70766
:1002E1009BEC9AE899400AED9BFDEC9AFCE899F8A1
:0E02F1000FD5F0DAE4CDFBE4CCFAE4C8F92234
:1002FF00EB9FF5F0EA9E42F0E99D42F0E89C45F055
:01030F0022CB
:10031000E8600FECC313FCED13FDEE13FEEF13FFCB
:03032000D8F122EF
:0C032300ECF208EDF208EEF208EFF22216
:10032F00D083D082E493F208740193F2087402939D
:09033F00F208740393F2740473D4
:0C034800A42582F582E5F03583F58322C0
:10055E00020917E493A3F8E493A34003F68001F293
:10056E0008DFF48029E493A3F85407240CC8C3339E
:10057E00C4540F4420C8834004F456800146F6DF6D
:10058E00E4800B01020408102040809008A0E47E55
:10059E00019360BCA3FF543F30E509541FFEE49362
:1005AE00A360010ECF54C025E060A840B8E493A329
:1005BE00FAE493A3F8E493A3C8C582C8CAC583CA54
:1005CE00F0A3C8C582C8CAC583CADFE9DEE780BE0C
:0108CF000028
:00000001FF
